:0200000460405A
:10000000000002201D034060A1034060CD2C406031
:10001000A5034060A7034060A90340600000000002
:10002000000000000000000000000000AB03406082
:10003000AD03406000000000AF034060C5054060B4
:10004000DD274060E5274060ED274060F5274060F0
:10005000FD274060052840600D284060152840605D
:100060001D284060252840602D28406035284060CC
:100070003D284060452840604D284060552840603C
:100080005D284060652840606D28406075284060AC
:100090007D284060852840608D284060952840601C
:1000A0009D284060A5284060AD284060B52840608C
:1000B000BD284060C5284060CD284060D5284060FC
:1000C000DD284060E5284060ED284060F52840606C
:1000D000FD284060052940600D29406015294060D9
:1000E0001D294060252940602D2940603529406048
:1000F0003D294060452940604D29406055294060B8
:100100005D294060652940606D2940607529406027
:100110007D294060852940608D2940609529406097
:100120009D294060A5294060AD294060B529406007
:10013000BD294060C5294060CD294060D529406077
:10014000DD294060E5294060ED294060F5294060E7
:10015000FD294060052A40600D2A4060152A406054
:100160001D2A4060252A40602D2A4060352A4060C3
:100170003D2A4060452A40604D2A4060552A406033
:100180005D2A4060652A40606D2A4060752A4060A3
:100190007D2A4060852A40608D2A4060952A406013
:1001A0009D2A4060A52A4060AD2A4060B52A406083
:1001B000BD2A4060C52A4060CD2A4060D52A4060F3
:1001C000DD2A4060E52A4060ED2A4060F52A406063
:1001D000FD2A4060052B40600D2B4060152B4060D0
:1001E0001D2B4060252B40602D2B4060352B40603F
:1001F0003D2B4060452B40604D2B4060552B4060AF
:100200005D2B4060652B40606D2B4060752B40601E
:100210007D2B4060852B40608D2B4060952B40608E
:100220009D2B4060A52B4060AD2B4060B52B4060FE
:10023000BD2B4060C52B4060CD2B4060D52B40606E
:10024000DD2B4060E52B4060ED2B4060F52B4060DE
:10025000FD2B4060052C40600D2C4060152C40604B
:100260001D2C4060252C40602D2C4060352C4060BA
:100270003D2C4060452C40604D2C4060552C40602A
:100280005D2C4060652C40606D2C4060752C40609A
:100290007D2C4060852C40608D2C4060952C40600A
:1002A0009D2C4060A52C4060AD2C4060B52C40607A
:1002B000BD2C4060C52C4060A83840600000002084
:1002C00004000000A83840600000000000000000AA
:1002D000A83840600000202000000000A8384060DE
:1002E0000000008000000000A83840600000E081AD
:1002F00000000000040000203401000000000000A5
:10030000000000000000202000000000000000802D
:10031000000000000000E0810000000072B6104BF9
:1003200083F3088800F00CFD0E4B07E003F10C048A
:100330009A685968186800F01BF823460A4A9342E5
:10034000F4D306E01C46596854F8080B00F01FF877
:100350002346064A9342F5D362B602F092FEFEE7C8
:1003600000000220B8024060F40240601C034060BC
:10037000002393420AD210B450F8044B41F8044BC6
:1003800004339342F8D35DF8044B70477047002361
:1003900003E0002240F8042B04338B42F9D370476A
:1003A000FEE7FEE7FEE7FEE7FEE7FEE7FEE7FEE725
:1003B000FEE7FEE780B582B000AF7860796802485A
:1003C00001F0E3FE00BEFDE7C834406080B584B0B4
:1003D00000AF786039607B68002BFCD03B68002B55
:1003E00001D1002313E00C4B1B68002B01D100232B
:1003F0000DE03A687968094802F010FD0346FB8178
:10040000FB89002B01D13B6801E04FF0FF33184618
:100410001037BD4680BD00BF240000201C00002016
:1004200080B5A4B000AF786039600023C7F8883089
:100430000023C7F88C300023BB6007F10C037C223B
:100440000021184602F024FE0E4B1B68002B12D030
:1004500007F108020C4B3968786802F069F8C7F8B0
:100460008800D7F8882007F1080311461846FFF7DF
:10047000ADFFC7F88C00D7F88C3018469037BD46D2
:1004800080BD00BF2400002025214060F1B5002A76
:100490004BD011F0030306D011F8014B013A00F8DC
:1004A000014B42D0F5E710F003031BD1102A04DB07
:1004B000103AF0C9102AF0C0FAD2130744BF30C96D
:1004C00030C0530744BF51F8044B40F8044B930726
:1004D00044BF31F8024B20F8024BD30744BF0C78DD
:1004E000047022E0C3070AD4042A16D351F8044B3F
:1004F000043A20F8024B250C20F8025BF4E7042AAA
:100500000BD351F8044B043A00F8014B250A20F8AC
:10051000025B260E00F8016BF1E7002A1EBF11F8FE
:10052000014B00F8014B013AF7D1F1BD80B483B023
:1005300000AF03463960FB80B7F90630002B0ADBB9
:100540003B68DAB20C49B7F906301201D2B20B445B
:1005500083F800230AE03B68DAB20849FB8803F01D
:100560000F03043B1201D2B20B441A7600BF0C37C2
:10057000BD465DF8047B704700E100E000ED00E05F
:1005800080B582B000AF78607B68013BB3F1807FBB
:1005900001D301230FE00A4A7B68013B53600F211E
:1005A0004FF0FF30FFF7C2FF054B00229A60044B6B
:1005B00007221A60002318460837BD4680BD00BFD9
:1005C00010E000E080B400AF064B1B68002B04D0A5
:1005D000044B1B68013B034A136000BFBD465DF836
:1005E000047B70472800002080B483B000AF78609F
:1005F000074A7B68136000BF054B1B68002BFBD1CB
:1006000000BF00BF0C37BD465DF8047B704700BFDC
:100610002800002080B500AF00F0B2FD02F02BFDF5
:1006200002F0BCFC00F02EFC134B1B68134AA2FB2B
:1006300003239B091846FFF7A3FF0346002B00D0B6
:10064000FEE74FF47A70FFF7CFFF0D4B1B78DBB25C
:10065000002B08D0002209210A4800F0FBF9084BC2
:1006600000221A70EDE701220921064800F0F2F994
:10067000034B01221A70E4E700000020D34D621002
:100680003401002000801B4080B582B000AF0346DB
:10069000FB71FB7983F00103DBB2002B02D113481D
:1006A000FFF788FE124B4FF08042C3F8582100BF7D
:1006B0000F4BD3F8703203F48033002BF8D00C4B7F
:1006C0004FF48032C3F8542100BF094BD3F85031A6
:1006D00003F40043002BF8D0054B4FF48032C3F8ED
:1006E000582100BF0837BD4680BD00BFDC344060E4
:1006F00000800D4080B483B000AF0346FB71FB79EE
:10070000002B04D1074B1022C3F8742203E0054BE1
:100710001022C3F8782200BF0C37BD465DF8047B79
:10072000704700BF00800D4080B400AF064BD3F887
:100730007032054A43F00103C2F8703200BFBD4673
:100740005DF8047B704700BF00800D4080B483B02B
:1007500000AF7860154B1B6823F4E0327B681B798F
:100760009B039BB21343114A43F4803313600F4B36
:100770001A680F4B13407A68126802F07F02134325
:100780000A4A43F40053136000BF084B1B68002B58
:10079000FBDA064B1B68054A23F48033136000BF65
:1007A0000C37BD465DF8047B704700BF00800D40EC
:1007B00080CFFFFF80B483B000AF7860224B1B6B0B
:1007C00023F4E0327B681B7B9B039BB213431E4ADE
:1007D00043F4803313631C4B1A6B1C4B13407A6831
:1007E000127802F001021343174A43F400531363D3
:1007F0007B685B68144A23F0404313657B689B6801
:10080000114A23F0404313667B685B8AC3F30E02F0
:100810007B681B7CDB039BB21A437B68DB891B0470
:10082000094913430B6400BF074B1B6B002BFBDA1A
:10083000054B1B6B044A23F48033136300BF0C3752
:10084000BD465DF8047B704700800D40FECFFFFF82
:1008500080B400AF034B00221A6200BFBD465DF8B2
:10086000047B704700800D4080B400AF044B4FF410
:1008700080521A6700BFBD465DF8047B704700BF19
:1008800000800D4080B400AF044B4FF48052C3F899
:10089000E02000BFBD465DF8047B704700800D403E
:1008A00080B485B000AF03460A46FB711346BB71A6
:1008B000FB79FB60124BD3F80021FB68DB00BF2102
:1008C00001FA03F3DB431340BB60FB68DB008022CB
:1008D0009A400B49BB681343C1F80031BB7903F060
:1008E0003F02FB68DB009A400549BB681343C1F82F
:1008F000003100BF1437BD465DF8047B704700BF70
:1009000000800D4080B586B000AF03460A46FB80EC
:1009100013467B71B7F906301B0A7B61FB8803F035
:100920001F033B617B69072B02D90C48FFF742FD8F
:100930007B699A000A4B1344FB6003223B6902FA6D
:1009400003F17A793B6902FA03F31A46F86802F078
:10095000D8F900BF1837BD4680BD00BF00354060E4
:1009600068C00F4080B584B000AF78600023FB60A2
:1009700009E00D4AFB6852F823307A689A4206D0A3
:10098000FB680133FB60FB680A2BF2D900E000BF73
:10099000FB680A2B02D90548FFF70CFDFB681846D7
:1009A0001037BD4680BD00BF2035406058354060DF
:1009B00080B586B000AFF860B9607A60F868FFF77C
:1009C000D1FF78617B69052B0DD8214A7B6932F90B
:1009D0001330B3F1FF3F06D01D4A7B6932F9133063
:1009E000184602F0B6F9FB685A690121BB6801FAA2
:1009F00003F3DB431A40FB685A617B681B78002BCA
:100A00000AD1FB685A680121BB6801FA03F3DB4392
:100A10001A40FB685A600FE07B685B781A46B96839
:100A2000F86800F017F8FB685A680121BB6801FA02
:100A300003F31A43FB685A607B689B781A46B968CF
:100A4000F86802F095F900BF1837BD4680BD00BFB9
:100A50004C35406080B584B000AFF860B960134693
:100A6000FB71BB681F2B02D90B48FFF7A3FCFB7976
:100A7000002B06D10122BB689A40FB68C3F888208E
:100A800005E00122BB689A40FB68C3F8842000BFE0
:100A90001037BD4680BD00BF8C35406080B487B044
:100AA00000AFF860B9601346FB71BB683B61FB683F
:100AB000DA690121BB6801FA03F3DB431A40FB68E2
:100AC000DA61BB680F2B03D8FB680C337B6105E050
:100AD000FB6810337B613B69103B3B61FB79013B59
:100AE000042B52D801A252F823F000BF010B406042
:100AF000190B40603D0B4060610B4060770B40601C
:100B00007B691A683B695B00032101FA03F3DB434D
:100B10001A407B691A6039E07B691A683B695B009F
:100B2000032101FA03F3DB431A403B695B00012117
:100B300001FA03F31A437B691A6027E07B691A689C
:100B40003B695B00032101FA03F3DB431A403B6975
:100B50005B00022101FA03F31A437B691A6015E076
:100B60007B691A683B695B00032101FA03F31A43AE
:100B70007B691A600AE0FB68DA690121BB6801FA47
:100B800003F31A43FB68DA6100E000BF00BF1C37C3
:100B9000BD465DF8047B704780B586B000AFF86055
:100BA000B9607A60BB68002B02D11448FFF702FCE1
:100BB000BB687B617B683B6111E000BFFB685B69E0
:100BC00003F40003002BF9D07B691B781A46FB68FD
:100BD000DA617B6901337B613B69013B3B613B69C6
:100BE000002BEAD100BFFB685B6903F48003002B94
:100BF000F9D0002318461837BD4680BDA83540609F
:100C000080B500AF054B5B68054A52681146054840
:100C10009847BFF34F8F00BF00BF80BD5800002032
:100C2000340000200040184080B500AF054B9B68A1
:100C3000054A9268114605489847BFF34F8F00BF99
:100C400000BF80BD58000020340000200080184004
:100C500080B500AF054BDB68054AD26811460548F0
:100C60009847BFF34F8F00BF00BF80BD58000020E2
:100C70003400002000C0184080B500AF054B1B6950
:100C8000054A1269114605489847BFF34F8F00BFC8
:100C900000BF80BD58000020340000200000194033
:100CA00080B500AF054B5B69054A5269114605489E
:100CB0009847BFF34F8F00BF00BF80BD5800002092
:100CC000340000200040194080B500AF054B9B69FF
:100CD000054A9269114605489847BFF34F8F00BFF8
:100CE00000BF80BD58000020340000200080194063
:100CF00080B500AF054BDB69054AD269114605484E
:100D00009847BFF34F8F00BF00BF80BD5800002041
:100D10003400002000C0194080B500AF054B1B6AAD
:100D2000054A126A114605489847BFF34F8F00BF26
:100D300000BF80BD580000203400002000001A4091
:100D400080B500AF484BD3F88830474A43F470036E
:100D5000C2F88830444B454A9A60454B1B899BB288
:100D6000434A23F001039BB21381424B1B899BB280
:100D7000404A23F001039BB213813D4B1B889BB279
:100D800003F00403002B07D0394B1B889BB2384A71
:100D900023F004039BB21380364B1B889BB203F0F5
:100DA0000403002B07D0334B1B889BB2314A23F03E
:100DB00004039BB21380304B1B6803F40053002BD9
:100DC00003D02D4B2D4A5A6007E02B4B4CF220529A
:100DD0005A60294B4DF628125A60274B4FF6FF7286
:100DE0009A60254B1B6823F0A003234A43F020039D
:100DF0001360234B1B6803F00103002B05D0204B2D
:100E00001B681F4A23F001031360174B5B6903F44F
:100E10000033B3F5003F22D0134B5B6903F400337A
:100E2000002B1BD1BFF34F8F00BFBFF36F8F00BFED
:100E30000D4B0022C3F85022BFF34F8F00BFBFF30A
:100E40006F8F00BF084B5B69074A43F4003353615F
:100E5000BFF34F8F00BFBFF36F8F00E000BF01F003
:100E600098FF00BF80BD00BF00ED00E000004060C3
:100E700000800B4000000D4000C00B4020C528D969
:100E800010E000E02DE9F04385B000AF7C4E7669BC
:100E900006F00076002E49D0794B9B6903F440534D
:100EA000B3F5005F28D0B3F5005F31D8002B03D035
:100EB000B3F5805F1DD02BE0724B1B6903F48033C8
:100EC000002B0BD06F4B1B699B0B03F00303002B14
:100ED00001D16D4B00E00023FB601CE0694B1B69F6
:100EE00003F00203002B01D0684B00E0684BFB606D
:100EF00011E0654BFB600EE0624B1B6B9B0B03F03C
:100F00000303002B01D1604B00E00023FB6002E0F3
:100F10000023FB6000BF5A4B5B69DB0E03F0070345
:100F20000133FA68B2FBF3F3FB6099E0554E366883
:100F300006F48036002E0BD0524E3668B60B06F003
:100F40000306002E01D1504E00E00026BE6008E0EE
:100F50004C4E366806F07F064B4C04FB06F67608CE
:100F6000BE60484E366B06F48036002E0BD0454EE0
:100F7000366BB60B06F00306002E01D1424E00E0A0
:100F800000267E6009E03F4E366B06F00106002E1B
:100F900001D03E4E00E03E4E7E603A4E366D4FF040
:100FA000000C32466346384E06FB03FC002602FB6B
:100FB00006F66644344CA2FB040173181946314B03
:100FC0001B6E00229846914642464B4602F093F92A
:100FD00002460B467B6813447B60294B9B6903F4F4
:100FE0004023B3F5402F2ED0B3F5402F35D8B3F5BD
:100FF000002F1AD0B3F5002F2FD8002B03D0B3F554
:10100000802F03D029E07B68FB6029E01D4BD3F8DB
:1010100000311B0C03F03F037A68B2FBF3F2134676
:10102000DB0013445B00FB601AE0164BD3F8003181
:1010300003F03F037A68B2FBF3F21346DB0013447C
:101040005B00FB600CE00E4B1B6903F007030133F0
:10105000BA68B2FBF3F3FB6002E00023FB6000BF61
:10106000074B5B699B0A03F007030133FA68B2FB85
:10107000F3F3084A136000BF1437BD46BDE8F083A0
:1010800000C00F4000800D4000366E0100A4781FA4
:1010900000389C1C0000002080B586B000AFF860CE
:1010A000B9607A60FB68002B02D11048FFF782F923
:1010B000BB68002B02D10E48FFF77CF97B68002B40
:1010C00002D10C48FFF776F9FB687B617B691B78DE
:1010D0001A46094B53F822307A68B9681846FFF768
:1010E0005BFD002318461837BD4680BDF0354060D3
:1010F0001C36406044364060CC35406080B483B0DC
:1011000000AF7860BFF35F8F00BF0B4A7B6843F08E
:1011100001035360094B5B6A084A43F4803353620E
:10112000BFF34F8F00BFBFF36F8F00BF00BF0C37FF
:10113000BD465DF8047B704790ED00E000ED00E0F7
:1011400080B400AFBFF35F8F00BF0B4B5B6A0A4AEE
:1011500023F480335362094B5B68084A23F0010390
:101160005360BFF34F8F00BFBFF36F8F00BF00BF4F
:10117000BD465DF8047B704700ED00E090ED00E0B7
:1011800080B58AB000AFA14B7B62A14A7B6AD31ABB
:101190003B6200233B619F4B5B6903F40033B3F573
:1011A000003F16D1BFF34F8F00BFBFF36F8F00BF5B
:1011B000984B5B69974A23F400335361954B0022A7
:1011C000C3F85022BFF34F8F00BFBFF36F8F00BF34
:1011D00000BF904B5B6903F48033B3F5803F4DD182
:1011E0008C4B0022C3F88420BFF34F8F00BF894B84
:1011F0005B69884A23F480335361BFF34F8F00BF8C
:10120000844A07F10803C2F87032824A3B1DC2F8D3
:101210007032804A07F10C03C2F87032BFF34F8F6F
:1012200000BFBFF36F8F00BF7A4BD3F88030FB60F5
:10123000FB685B0BC3F30E03BB60FB68DB08C3F307
:1012400009037B60BB685A0143F6E07313407A6878
:10125000920770491343C1F874327B685A1E7A6052
:10126000002BEFD1BB685A1EBA60002BE5D1BFF34B
:101270004F8F00BFBFF36F8F00BF00BFFFF760FF4E
:10128000654B1022DA60644B644A1A61624B644A0F
:10129000DA60614B634A1A615F4B634ADA605E4B06
:1012A000604A1A615C4B614ADA605B4B604A1A61C2
:1012B000594B1422DA60584B5E4A1A61564B15227C
:1012C000DA60554B5C4A1A61534B5C4ADA60524B08
:1012D000594A1A61504B5A4ADA604F4B594A1A61BF
:1012E0004D4B594ADA604C4B584A1A614A4B584A9E
:1012F000DA60494B574A1A6102E03B6901333B61AE
:101300003B693A6A22FA03F3012BF6D83B69002BBA
:101310002DD07B6A3A6AB3FBF2F2396A01FB02F222
:101320009B1A002B02D04C48FFF744F83B6901227E
:1013300002FA03F31A463B6A934202D04748FFF78A
:1013400039F83B69042B02D84548FFF733F87B6A2C
:1013500023F01F03304A43F01A03D3603B69013B7B
:101360005B0003F03E022C493E4B13430B612A4BBA
:101370003D4ADA60284B3D4A1A61274B3C4ADA6005
:10138000254B3C4A1A610620FFF7B8FE214B5B69EA
:1013900003F48033002B6FD11E4B0022C3F884204E
:1013A000BFF34F8F00BF1B4BD3F88030FB61FB694D
:1013B0005B0BC3F30E03BB61FB69DB08C3F30903DB
:1013C0007B61BB695A0143F6E07313407A69920767
:1013D00010491343C1F860327B695A1E7A61002BB1
:1013E000EFD1BB695A1EBA61002BE5D1BFF34F8F15
:1013F00000BF084B5B69074A43F480335361BFF376
:101400004F8F00BFBFF36F8F37E000BF0000E08158
:101410000000008200ED00E090ED00E03F000010D1
:1014200011000080390010031200006013000060FA
:101430002D0003063B0010032100030316000020CB
:101440001700202025000303180028202300030391
:1014500019000080310003036C3640609436406010
:10146000C0364060010008031B0000402B00100341
:101470001C0000422700100300BF134B5B6903F4FC
:101480000033002B1BD1BFF34F8F00BFBFF36F8F13
:1014900000BF0D4B0022C3F85022BFF34F8F00BF97
:1014A000BFF36F8F00BF084B5B69074A43F40033FB
:1014B0005361BFF34F8F00BFBFF36F8F00E000BFDA
:1014C00000BF2837BD4680BD00ED00E080B584B088
:1014D00000AF786039607B689B0EFB607B68DAB296
:1014E0001F4B13441A687B685B0BC3F30C017B68CA
:1014F0001B0A03F01F0301FA03F3DB4302EA0301B3
:101500007B681B0A03F01F033A689A407B685B0BF9
:10151000C3F30C007B681B0A03F01F0300FA03F3FC
:101520001A407B68D8B20E4B0344184641EA0203C6
:101530000360FB68202B02D90A48FEF73BFFFB68DB
:10154000202B09D000BF064B9A6CFB6822FA03F3EC
:1015500003F00103002BF6D100BF1037BD4680BD5C
:1015600000C00F40D836406080B584B000AF7860CE
:1015700039607B689B0EFB607B68DAB21F4B1344BB
:101580001A687B685B0BC3F30C017B681B0A03F0D2
:101590001F0301FA03F3DB4302EA03017B681B0A22
:1015A00003F01F033A689A407B685B0BC3F30C009F
:1015B0007B681B0A03F01F0300FA03F31A407B68E1
:1015C000D8B20E4B0344184641EA02030360FB689D
:1015D000202B02D90A48FEF7EDFEFB68202B09D02C
:1015E00000BF064B9A6C0121FB6801FA03F313401C
:1015F000002BF6D100BF1037BD4680BD00C00F40A4
:101600006C37406080B586B000AF03460A46FB8069
:1016100013467B71B7F906301B0A7B61FB8803F028
:101620001F033B617B69072B02D90C48FEF7C2FE02
:101630007B699A000A4B1344FB6003223B6902FA60
:1016400003F17A793B6902FA03F31A46F86801F06C
:1016500011FC00BF1837BD4680BD00BF0038406098
:1016600068C00F4080B483B000AF7860044A7B68E4
:10167000136000BF0C37BD465DF8047B704700BFA8
:101680002C00002080B483B000AF7860044A7B68EF
:10169000136000BF0C37BD465DF8047B704700BF88
:1016A0003000002080B485B000AF78600B46FB703E
:1016B0001346BB707B689A680A4B1340FB60FB784B
:1016C0009B0603F08062FB681A43BB781B0403F49B
:1016D0007F031A437B689A6000BF1437BD465DF8EC
:1016E000047B7047FFFF00FB80B582B000AF4FF472
:1016F0000040FFF7C7FFDC4BD3F8C032DA4A43F4AF
:101700008033C2F8C032D84BD3F8C032D64A23F463
:101710000033C2F8C032D548FFF7A4FF0020FEF71F
:10172000B3FFFFF701F80120FEF7E4FFD04B1B6881
:1017300023F0FF03CE4A43F07F0313600121CD481D
:10174000FFF7C4FE0121CC48FFF7C0FECB4BDB689E
:1017500023F01F03C94A43F01303D36000BFC74BF4
:101760001B6803F00043B3F1004FF8D10021C448D7
:10177000FFF7FAFE4FF4887001F0A4FB4FF4847079
:1017800001F0A0FB40F2162001F09CFB4FF4067024
:1017900001F098FB40F20E2001F094FB0321B948C0
:1017A000FFF7E2FE0121B848FFF7DEFE0021B7484F
:1017B000FFF7DAFE4FF48A7001F084FB4FF48B7070
:1017C00001F080FB182001F07DFB1A2001F07AFB6C
:1017D0004FF4867001F076FB0121AD48FFF7C4FE9F
:1017E00040F2026001F06EFB0121AA48FFF7BCFE47
:1017F0000021A948FFF76AFE40F2046001F062FB95
:101800000121A648FFF7B0FE0021A548FFF75EFEC4
:101810004FF4417001F056FB07214FF21400FFF71F
:10182000A3FE00219F48FFF751FE00219E48FFF7CD
:101830004DFE40F2027001F045FB01219B48FFF78D
:1018400093FE01219A48FFF741FE40F2022001F089
:1018500039FB01219748FFF787FE00219648FFF7E3
:1018600035FE4FF4807001F02DFB4FF4817001F0D4
:1018700029FB4FF4827001F025FB4FF4837001F0D7
:1018800021FB04218D48FFF76FFE02218C48FFF7F2
:101890001DFE162001F016FB03218A48FFF764FEA7
:1018A00000218948FFF712FE40F2125001F00AFBB6
:1018B00003218648FFF758FE01218548FFF754FEB3
:1018C00000218448FFF702FE40F2145001F0FAFABA
:1018D00003218148FFF748FE01218048FFF744FEBD
:1018E00000217F48FFF7F2FD40F2165001F0EAFABE
:1018F00003217C48FFF738FE01217B48FFF734FEC7
:1019000000217A48FFF7E2FD40F2062001F0DAFA02
:101910004FF4027001F0D6FA40F20A2001F0D2FA38
:1019200000217348FFF720FE00217248FFF7CEFD2B
:101930000E2001F0C7FA122001F0C4FA40F206703E
:1019400001F0C0FA102001F0BDFA142001F0BAFA3B
:101950004FF4E16001F0B6FA01216748FFF704FE99
:1019600002216648FFF7B2FD4FF4A36001F0AAFA26
:101970001C2001F0A7FA0C2001F0A4FA4FF48C709F
:1019800001F0A0FA40F2023001F09CFA40F2063079
:1019900001F098FA40F21A5001F094FA40F20E6009
:1019A00001F090FA00215648FFF7DEFD002155486E
:1019B000FFF78CFD40F20A3001F084FA0121524811
:1019C000FFF7D2FD03215148FFF7CEFD0521504816
:1019D000FFF77CFD40F20E5001F074FA01214D48F2
:1019E000FFF7C2FD07214C48FFF7BEFD03214B481E
:1019F000FFF76CFD40F2025001F064FA0121484803
:101A0000FFF7B2FD07214748FFF7AEFD0321464827
:101A1000FFF75CFD4FF4407001F054FA0121434898
:101A2000FFF7A2FD07214248FFF79EFD0321414831
:101A3000FFF74CFD00214048FFF748FD3F48FEF707
:101A400085FE3F48FEF7B6FE1B210020FEF728FF6B
:101A500010210120FEF724FF18210220FEF720FFAD
:101A6000102103206EE000BF00800D4000366E01A3
:101A700000C00F40186C00801439001400000840AA
:101A800014EA00041468008010E0004014FB008099
:101A90001CE0078024EB00801C30008024F00080D4
:101AA0001C310080142700801426008018FD00805F
:101AB000186800803CEB00803C69008018FA0080C8
:101AC0001864008024790080186E008028E6008069
:101AD00028E007801C6A00802CE600802CE007804C
:101AE0001C6C008028F6008028F007801C6E0080A7
:101AF00038F307803832008020E2078020680080B9
:101B000024E007802426008038EC008018F700804D
:101B100038EF008030F9008030F6008030740080AB
:101B200030EC008030E900803067008028E90080D8
:101B300028F90080207300800C20008084384060E9
:101B40008C384060FEF7ACFEFEF78EFE01228C4919
:101B50008C4801F0C6F98B4BD3F87031894A23F4D5
:101B60000043C2F87031874BD3F87031854A23F4B3
:101B70000003C2F87031834B1B6F824A43F4005359
:101B80001367804BD3F8A0307E4A23F40053C2F889
:101B9000A0307C4BD3F8A03023F4E033794A43F4EF
:101BA0008033C2F8A030774B0022C3F8B020754BC9
:101BB0000122C3F8C020734BD3F8A030724A1A40F8
:101BC00042F21F0313437B607B6843F400237B6076
:101BD0006C4BD3F870316B4A43F04043C2F870311C
:101BE000684A7B68C2F8A03000BF664BD3F8A030CB
:101BF000002BFADA00226549624801F072F9FEF71B
:101C000041FE012262495F4801F06BF95D4BD3F858
:101C1000E03023F003035B4A43F00103C2F8E030F5
:101C2000584BD3F8E030574A43F40053C2F8E03041
:101C3000544BD3F8E030534A23F00C03C2F8E030A1
:101C4000504BD3F8E0304F4A43F48013C2F8E030F1
:101C50004C4BD3F8E0304B4A43F40013C2F8E03069
:101C6000FEF7F6FD01224B49464801F03AF9454B93
:101C70001B6A444A43F40053136203214648FFF7AA
:101C800025FC00214548FFF721FC00214448FFF7CF
:101C90001DFC00214348FFF719FC3A4BD3F8603193
:101CA000384A23F01F03C2F860313F4B1B6E3E4A97
:101CB00023F0700313663C4B1B6E23F00F033A4A6C
:101CC00043F001031366384B1B6E374A23F460035D
:101CD0001366354B1B6E23F4F813334A43F4901309
:101CE0001366314B1B6E304A23F4807313662E4B00
:101CF0001B6E2D4A23F0800313662B4B1B6E2A4A62
:101D000023F08073136600220021284801F010F9A7
:101D100000220321254801F00BF900220621234867
:101D200001F006F900220821204801F001F9002203
:101D30000A211E4801F0FCF8002200211B48FFF791
:101D4000B1FC1A4B5B68194A23F400335360174BFC
:101D50005B68164A23F480235360144B5B69134A73
:101D600023F080535361114B5B69104A23F00053F9
:101D700053610F4B0F4A1A6000BF0837BD4680BD44
:101D80000D00700000800D4080CFFFFF0D00A0000F
:101D90000D00E0000D0020001872008014390014BE
:101DA000186C00801C26008000C00F4000C00A4054
:101DB000000000200046C32380B586B000AF034674
:101DC0000A46FB8013467B71B7F906301B0A7B611C
:101DD000FB8803F01F033B617B69072B02D90C488A
:101DE000FEF7E8FA7B699A000A4B1344FB60032272
:101DF0003B6902FA03F17A793B6902FA03F31A4666
:101E0000F86801F0D1F800BF1837BD4680BD00BFAB
:101E10000038406068C00F4080B584B002AF40F227
:101E2000024001F0E9F801233B7100237B7100239C
:101E3000BB713B1D1A4609211B48FEF7B9FD002363
:101E400001931A4B0093002300220521184801F04A
:101E5000E2F800230193174B00930023002209218D
:101E6000154801F0D8F8154B9B6E144A23F4007303
:101E7000936641F2B0030193114B009300230022BB
:101E80000521104801F0E4F849F2B1030193094B30
:101E90000093002300220921074801F0D9F800BF70
:101EA0000837BD4680BD00BF00801B40D0821F4068
:101EB000E0801F40D4821F40E4801F4000C00A40E1
:101EC000CC821F40DC801F4010B5174A0020174904
:101ED00001F05EF94FF480734FF4806200211248E4
:101EE00001F0F0F8124A1349012001F051F94FF4C2
:101EF00080734FF4806200210D4801F0E3F80E4B2F
:101F00001B68022B0EDD0D4A02200A4901F040F940
:101F10004FF480734FF4806200210848BDE8104000
:101F200001F0D0B810BD00BF80000020A438406090
:101F3000BC000020A6384060A0384060F8000020B7
:101F40002DE9F041D56880460E461446EB025769EC
:101F500005D545F01005384601F0A4FAA061124BF2
:101F60002B408BB1A169384601F0A5FA002806DAAA
:101F7000E3684FF0FF3043F08003E36011E025F4A5
:101F8000003525F01005E56032464146384601F03F
:101F900098FA20F00043F61AA3693344A36100289D
:101FA000E6D1BDE8F08100BF10000200F8B504469C
:101FB00038B90B4B05460B4E1F68A74205DC284677
:101FC000F8BDBDE8F84001F076B93046013401F0C3
:101FD00072F9002806F13C0618BF4FF0FF35ECE718
:101FE000A0384060800000202DE9F843C668044610
:101FF0003A4B0D469046D0F8149033406BB14846AA
:1020000001F053FA074640B9B8F1010F09D0B8F111
:10201000020F31D0B8F1000F07D002273846BDE8D3
:10202000F883204600F05CF80544002DF5DBB3048E
:1020300004D52368E26A9A4238BFE362A069A842E5
:102040000EDC2368E26A934238BF134622691918EE
:10205000891AA94204DB216B00EB010CAC452CDC96
:10206000002346F02006A562C4E9013326F40326C6
:1020700026F04006E660D1E7484601F013FAB0F1D9
:10208000000CE26804DA42F080020127E260C5E752
:102090002168A369E06A81422CBF5B181B18216983
:1020A0009206A3EB010303D5A26A9342B8BF13467D
:1020B0006345ACBFED186544B7E72D1AB00744BFC0
:1020C000691AA160F10726F0200648BF9B1A2A442E
:1020D00048BFEB1A226048BF6360C7E703001000E7
:1020E000C3689A0705D10E4B21224FF0FF301A60CA
:1020F000704703F020021B0309D512B1806A013832
:1021000070470368826900691344181AF7E70AB137
:10211000806A70470368826900691344181A70471F
:102120007C00002080B586B000AFF860B9603B60ED
:102130001346FB7100237B6100237B611CE0BB68BD
:102140001B6801337F2B08D9BB681B681946F868E8
:10215000FEF73CF9BB6800221A60BB681B681A4690
:10216000FB681344FA791A70BB681B685A1CBB6879
:102170001A607B6901337B617A693B689A42DEDBD6
:1021800000BF00BF1837BD4680BD0FB480B582B018
:1021900000AF00237B6007F114033B6039683869A6
:1021A000FEF73EF978607B6818460837BD46BDE803
:1021B000804004B0704780B485B000AF786039606B
:1021C0000023FB600023FB7220E07B681B685A1C25
:1021D0007B681A607B681B681B78BB72BB7A2F2BED
:1021E0000DD9BB7A392B0AD8FA6813469B001344E1
:1021F0005B001A46BB7A1344303BFB6006E07B6809
:102200001B685A1E7B681A600123FB72FB7A002B45
:10221000DBD0FB6818461437BD465DF8047B704779
:1022200080B489B000AFF860B9607A60FB681B6861
:10223000FB610623BB610023FB75FB690133FB6176
:10224000FB691B782E2B24D10023BB610023FB7577
:102250001BE0FB690133FB61FB691B78BB75BB7D30
:102260002F2B0DD9BB7D392B0AD8BA6913469B0099
:1022700013445B001A46BB7D1344303BBB6104E052
:10228000FB69013BFB610123FB75FB7D002BE0D06B
:1022900002E0FB69013BFB61FB68FA691A60BB69FC
:1022A00018462437BD465DF8047B704780B485B07E
:1022B00000AF0346FB710023FB60FB796F2B08D056
:1022C000FB79622B05D0FB79702B02D0FB79752B43
:1022D00001D10123FB60FB6818461437BD465DF849
:1022E000047B704780B485B000AF0346FB710023C8
:1022F000FB60FB79642B02D0FB79692B01D10123B0
:10230000FB60FB6818461437BD465DF8047B7047D8
:1023100090B585B000AFF860B9607A60FB70BA68BC
:102320007B68D31A7C6A2022F96AB86AA04708E061
:102330003B6A5A1E3A621A787C6A0123F96AB86AC3
:10234000A0473B6A1B78002BF2D100BF00BF1437B7
:10235000BD4690BD90B585B000AFF860B9607A60B9
:10236000FB70BA687B68D31A7C6A2022F96AB86A63
:10237000A04708E03B6A5A1E3A621A787C6A012339
:10238000F96AB86AA0473B6A1B78002BF2D100BFFC
:1023900000BF1437BD4690BD80B485B000AF034682
:1023A000FB710023FB60FB79662B02D0FB79462B87
:1023B00001D10123FB60FB6818461437BD465DF868
:1023C000047B704780B485B000AF0346FB710023E7
:1023D000FB60FB79782B02D0FB79582B01D10123CC
:1023E000FB60FB6818461437BD465DF8047B7047F8
:1023F00080B485B000AF78607B681B68FB60FB68C9
:102400000133FB60FB681B78FB72FB7A682BF6D00C
:10241000FB7A6C2BF3D0FB68013BFB607B68FA68AE
:102420001A6000BF1437BD465DF8047B704780B466
:1024300085B000AF0346FB71FB796F2B02D10823F7
:10244000FB730DE0FB79622B02D10223FB7307E0E3
:10245000FB79702B02D11023FB7301E00A23FB737D
:10246000FB7B18461437BD465DF8047B704780B48B
:102470008FB000AFF860B9607A603B600023FB6208
:10248000FB68BB62BB6A5A1CBA6200221A70002346
:102490007B6000237B6200233B620023FB610023FF
:1024A0007B630023BB6100233B6300237B61BB682C
:1024B0001B687B637B6B002B30D1BB6A30221A70A8
:1024C000FB6A0133FB62FB6A2CE07A6B3B68B2FB70
:1024D000F3F3BB61BB693A6802FB03F37A6BD31A6F
:1024E0003B633B6B092B03D83B6B30333B630AE008
:1024F00097F84030002B01D0412200E061223B6B75
:1025000013440A3B3B63BB697B63BB6A5A1CBA62D8
:102510003A6BD2B21A70FB6A0133FB627B6B002B01
:10252000D3D1FB6A18463C37BD465DF8047B704743
:1025300090B5A1B004AFF860B9607A603B60002349
:102540007B6600233B6600233B620023FB65002380
:10255000BB61FB68BB64BB6C1B78002B00F038814F
:10256000BB6C1B7887F85B3097F85B30252B0BD062
:1025700097F85B2007F120013C6801237868A047A9
:10258000BB6C0133BB6422E1012387F86B3007F198
:10259000080207F1480311461846FFF70CFE78655C
:1025A00007F1080107F1480300221846FFF738FE3B
:1025B000386507F148031846FFF71AFFBB6C013373
:1025C000BB64BB6C1B7887F85B3097F85B301846B0
:1025D000FFF788FE0346012B25D1BB681A1DBA60A0
:1025E0001B68FB6107F11C0107F1240097F86B30B1
:1025F00000930A230122FFF73AFF386607F124020D
:102600003B6E13447B663A6E07F1200303937B68AD
:1026100002933B6801937B6E00930023796D002049
:10262000FFF776FED0E097F85B301846FFF7B4FE70
:102630000346012B06D1BB68073323F00703083399
:10264000BB60C1E097F85B301846FFF7BBFE03465E
:10265000012B2ED197F85B30782B02D1002387F81D
:102660006B30BB681A1DBA601B68BB6107F11801AB
:1026700007F1240097F86B30009310230022FFF736
:10268000F6FE386607F124023B6E13447B663A6E11
:1026900097F86B1007F1200303937B6802933B6864
:1026A00001937B6E00930B46796D0020FFF752FE7D
:1026B0008AE097F85B301846FFF7F8FD0346012BD8
:1026C0003ED197F85B30702B0DD1BB681A1DBA60F4
:1026D0001B687B6107F1140107F1180304221846F7
:1026E000FDF7D4FE04E0BB681A1DBA601B68BB612D
:1026F00097F85B301846FFF79AFE0346FB6507F133
:10270000180107F1240097F86B300093FB6D00224D
:10271000FFF7ADFE386607F124023B6E13447B667B
:102720003A6E07F1200303937B6802933B680193A1
:102730007B6E00930023796D0020FFF7E9FD43E0F5
:1027400097F85B30632B0DD1BB681A1DBA601B680C
:10275000FB64FB6CDAB207F120013C680123786866
:10276000A04731E097F85B30732B25D1BB681A1D69
:10277000BA601B68FB66FB6E002B25D0F86E00F07C
:10278000C0FC03463B667A6D3B6ED31A07F120010D
:102790003C6820227868A04709E0FB6E5A1CFA6664
:1027A0001A7807F120013C6801237868A047FB6E86
:1027B0001B78002BF1D107E097F85B2007F120018F
:1027C0003C6801237868A047BB6C0133BB64C2E658
:1027D00000BF3B6A18467437BD4690BD08B5FDF78B
:1027E000E8FD08BD08B5FDF7E4FD08BD08B5FDF737
:1027F000E0FD08BD08B5FDF7DCFD08BD08B5FDF737
:10280000D8FD08BD08B5FDF7D4FD08BD08B5FDF736
:10281000D0FD08BD08B5FDF7CCFD08BD08B5FDF736
:10282000C8FD08BD08B5FDF7C4FD08BD08B5FDF736
:10283000C0FD08BD08B5FDF7BCFD08BD08B5FDF736
:10284000B8FD08BD08B5FDF7B4FD08BD08B5FDF736
:10285000B0FD08BD08B5FDF7ACFD08BD08B5FDF736
:10286000A8FD08BD08B5FDF7A4FD08BD08B5FDF736
:10287000A0FD08BD08B5FDF79CFD08BD08B5FEF735
:10288000BFF908BD08B5FEF7CFF908BD08B5FEF7DA
:10289000DFF908BD08B5FEF7EFF908BD08B5FEF78A
:1028A000FFF908BD08B5FEF70FFA08BD08B5FEF739
:1028B0001FFA08BD08B5FEF72FFA08BD08B5FDF7E9
:1028C00078FD08BD08B5FDF774FD08BD08B5FDF736
:1028D00070FD08BD08B5FDF76CFD08BD08B5FDF736
:1028E00068FD08BD08B5FDF764FD08BD08B5FDF736
:1028F00060FD08BD08B5FDF75CFD08BD08B5FDF736
:1029000058FD08BD08B5FDF754FD08BD08B5FDF735
:1029100050FD08BD08B5FDF74CFD08BD08B5FDF735
:1029200048FD08BD08B5FDF744FD08BD08B5FDF735
:1029300040FD08BD08B5FDF73CFD08BD08B5FDF735
:1029400038FD08BD08B5FDF734FD08BD08B5FDF735
:1029500030FD08BD08B5FDF72CFD08BD08B5FDF735
:1029600028FD08BD08B5FDF724FD08BD08B5FDF735
:1029700020FD08BD08B5FDF71CFD08BD08B5FDF735
:1029800018FD08BD08B5FDF714FD08BD08B5FDF735
:1029900010FD08BD08B5FDF70CFD08BD08B5FDF735
:1029A00008FD08BD08B5FDF704FD08BD08B5FDF735
:1029B00000FD08BD08B5FDF7FCFC08BD08B5FDF736
:1029C000F8FC08BD08B5FDF7F4FC08BD08B5FDF737
:1029D000F0FC08BD08B5FDF7ECFC08BD08B5FDF737
:1029E000E8FC08BD08B5FDF7E4FC08BD08B5FDF737
:1029F000E0FC08BD08B5FDF7DCFC08BD08B5FDF737
:102A0000D8FC08BD08B5FDF7D4FC08BD08B5FDF736
:102A1000D0FC08BD08B5FDF7CCFC08BD08B5FDF736
:102A2000C8FC08BD08B5FDF7C4FC08BD08B5FDF736
:102A3000C0FC08BD08B5FDF7BCFC08BD08B5FDF736
:102A4000B8FC08BD08B5FDF7B4FC08BD08B5FDF736
:102A5000B0FC08BD08B5FDF7ACFC08BD08B5FDF736
:102A6000A8FC08BD08B5FDF7A4FC08BD08B5FDF736
:102A7000A0FC08BD08B5FDF79CFC08BD08B5FDF736
:102A800098FC08BD08B5FDF794FC08BD08B5FDF736
:102A900090FC08BD08B5FDF78CFC08BD08B5FDF736
:102AA00088FC08BD08B5FDF784FC08BD08B5FDF736
:102AB00080FC08BD08B5FDF77CFC08BD08B5FDF736
:102AC00078FC08BD08B5FDF774FC08BD08B5FDF736
:102AD00070FC08BD08B5FDF76CFC08BD08B5FDF736
:102AE00068FC08BD08B5FDF764FC08BD08B5FDF736
:102AF00060FC08BD08B5FDF75CFC08BD08B5FDF736
:102B000058FC08BD08B5FDF754FC08BD08B5FDF735
:102B100050FC08BD08B5FDF74CFC08BD08B5FDF735
:102B200048FC08BD08B5FDF744FC08BD08B5FDF735
:102B300040FC08BD08B5FDF73CFC08BD08B5FDF735
:102B400038FC08BD08B5FDF734FC08BD08B5FDF735
:102B500030FC08BD08B5FDF72CFC08BD08B5FDF735
:102B600028FC08BD08B5FDF724FC08BD08B5FDF735
:102B700020FC08BD08B5FDF71CFC08BD08B5FDF735
:102B800018FC08BD08B5FDF714FC08BD08B5FDF735
:102B900010FC08BD08B5FDF70CFC08BD08B5FDF735
:102BA00008FC08BD08B5FDF704FC08BD08B5FDF735
:102BB00000FC08BD08B5FDF7FCFB08BD08B5FDF736
:102BC000F8FB08BD08B5FDF7F4FB08BD08B5FDF737
:102BD000F0FB08BD08B5FDF7ECFB08BD08B5FDF737
:102BE000E8FB08BD08B5FDF7E4FB08BD08B5FDF737
:102BF000E0FB08BD08B5FDF7DCFB08BD08B5FDF737
:102C0000D8FB08BD08B5FDF7D4FB08BD08B5FDF736
:102C1000D0FB08BD08B5FDF7CCFB08BD08B5FDF736
:102C2000C8FB08BD08B5FDF7C4FB08BD08B5FDF736
:102C3000C0FB08BD08B5FDF7BCFB08BD08B5FDF736
:102C4000B8FB08BD08B5FDF7B4FB08BD08B5FDF736
:102C5000B0FB08BD08B5FDF7ACFB08BD08B5FDF736
:102C6000A8FB08BD08B5FDF7A4FB08BD08B5FDF736
:102C7000A0FB08BD08B5FDF79CFB08BD08B5FDF736
:102C800098FB08BD08B5FDF794FB08BD08B5FDF736
:102C900090FB08BD08B5FDF78CFB08BD08B5FDF736
:102CA00088FB08BD08B5FDF784FB08BD08B5FDF736
:102CB00080FB08BD08B5FDF77CFB08BD08B5FDF736
:102CC00078FB08BD08B5FDF774FB08BD042071460C
:102CD000084202D0EFF3098001E0EFF30880816938
:102CE0000A884BF6AB639A4200D0FEE7023181615D
:102CF0000168012901D0002100E020210160704716
:102D000000BF80B48BB000AFF860B9607A60FB6838
:102D10007B617B6953E8003F3B613B697B62BB6839
:102D2000DA437B6A13407A6813437B627B6A3B62B7
:102D3000FB68FB61F9693A6A41E80023BB61BB6942
:102D4000002BE4D100BF00BF2C37BD465DF8047BEB
:102D5000704780B582B000AF0346FB80B7F90630FC
:102D600003211846FDF7CEFD00BF0837BD4680BDE4
:102D700080B584B000AFF860B9601346FB71FB7991
:102D80001A46B968F868FDF789FE00BF1037BD46DE
:102D900080BD80B400AF00BFBD465DF8047B7047C6
:102DA00080B586B000AFF860B9607A603B6043F2EE
:102DB0002153FB82FB681B78012B08D1FB680C3385
:102DC0003A687968184600F039F80346FB82FB8AB6
:102DD00018461837BD4680BD80B586B000AFF86094
:102DE000B9607A60FB68002BFCD0BB68002BFCD07C
:102DF0007B68002BFCD0FB687B617B691B683B61B7
:102E00003B69002BFCD07B68BA6879693869FFF7A9
:102E1000C7FF034618461837BD4680BD80B584B04D
:102E200000AFF860B9607A607A68B968F868FFF74F
:102E3000D3FF034618461037BD4680BD80B586B027
:102E400000AFF860B9607A60FB68002BFCD0BB680B
:102E5000002BFCD07B68002BFCD0FB687B617B697E
:102E60007A68B9681846FEF717F903461846183706
:102E7000BD4680BD80B48BB000AFF860B9607A60A9
:102E8000FB687B617B6953E8003F3B613B697B6288
:102E9000BB68DA437B6A13407A6813437B627B6AC0
:102EA0003B62FB68FB61F9693A6A41E80023BB6158
:102EB000BB69002BE4D100BF00BF2C37BD465DF8D5
:102EC000047B704780B582B000AF0346FB80B7F942
:102ED000063000211846FEF795FB00BF0837BD46B7
:102EE00080BD80B485B000AFF860B9601346FB7157
:102EF000FB79002B0BD0BB681B0CC3F30B02FB68E8
:102F0000134404331A464FF4803313600AE0BB685D
:102F10001B0CC3F30B02FB68134408331A464FF42F
:102F20008033136000BF1437BD465DF8047B7047E3
:102F300080B485B000AF78600B46FB701346BB7061
:102F4000FB78032B12D97B685A68FB78032101FABE
:102F500003F3DB431340FB60BB7803F00302FB7811
:102F60009A40FB681A437B685A6011E07B685A6894
:102F7000FB78072101FA03F3DB431340FB60BB78C6
:102F800003F00702FB789A40FB681A437B685A609B
:102F900000BF1437BD465DF8047B704780B500AFB5
:102FA000FEF7A2FB00BF80BD80B48BB000AFF8601D
:102FB000B9607A60FB687B617B6953E8003F3B61E5
:102FC0003B697B62BB68DA437B6A13407A681343D0
:102FD0007B627B6A3B62FB68FB61F9693A6A41E8A4
:102FE0000023BB61BB69002BE4D100BF00BF2C37BD
:102FF000BD465DF8047B704780B582B000AF0346E4
:10300000FB80B7F9063003211846FEF7D5FE00BF56
:103010000837BD4680BD80B485B000AFF860B960A8
:103020007A603B60BB6803F00F01FB691B0103F092
:103030001002FB680A431A607B68002B02D07B6891
:103040003A681A6000BF1437BD465DF8047B7047CC
:1030500080B485B000AFF860B9607A603B60BB694E
:10306000002B02D0BB69FA691A6000BF1437BD4655
:103070005DF8047B704780B500AFFEF7CDFE00BF62
:1030800080BD08B5FEF720FFBDE80840FDF7C2BAD5
:1030900000F0ECB9A8B14FF0805340F80C3C50F868
:1030A000042C72B11368B3F1805F0AD150F8083C68
:1030B000516803330B4440F8083C936840F8043CE3
:1030C000EDE7704770B5C468A50708D0B2F5007F7A
:1030D00011D0B2F5806F04D0B2F5807F0BD0012003
:1030E00008E000F124010123144301610160C36180
:1030F000C460002070BD5E1E6FF07F45AE42F3D30A
:10310000EDE7034610B59A071C4615D1234654F83F
:10311000042BA2F1013121EA020111F0803FF5D028
:10312000D1B299B112F47F4F0ED012F47F0F14BFB9
:1031300023460333013003E01A4612F8011B09B994
:10314000181A10BD1346DEE70233F3E70133F1E747
:10315000C368826923F0200310B5C3600446836A04
:103160009A420ED000F048F8E36823F4405323F06D
:10317000100343F01003E360A36AA3612369E362D1
:103180002360E36823F4804323F04003E36010BD31
:1031900070B50D4606461046144600F056F82B78DA
:1031A000722B17D0772B18D0612B23D1082348F22C
:1031B000020215F8011F2B2912D0622915D01B0716
:1031C000E260666104D5022200212046FEF70CFF72
:1031D000204670BD00230122EBE704230222E8E72A
:1031E00042F0030243F00203E3E742F0040243F03B
:1031F0000103DEE70024EBE738B5C3680446056940
:103200000168C26A23F40020E06003F08200022813
:1032100002D04FF0FF3038BDDB030CD5914238BFF0
:1032200011468D4209D10023E5622560A360E36861
:1032300023F48033E3600020EDE72246491B284653
:10324000FEF77EFE0028EED0E3E7F0B5C46889B053
:103250000546A107D0E9046720D0220716D4FEF75F
:10326000A5FE384600F01BF9230502D53046FFF7CE
:1032700011FFA40DA40514F1A54F07D12022296A3E
:10328000684600F01BF9684600F00BF83C2200216C
:103290002846FFF7FDFE002009B0F0BD4FF0FF30DB
:1032A000FAE710B50446FFF72CFF01462046BDE8BB
:1032B000104000F0FDB8C36870B513F00306044673
:1032C00011D09B0611D5856AFFF742FFE3682046BF
:1032D00023F44053E360FFF78FFF002206462946A0
:1032E0002046FEF781FE304670BD836905681D44A7
:1032F0000369ED1AEAE75FF0000C30B51C0022D13B
:1033000012006FD0914206D305460846002100F016
:103310006FF80446284600F06BF80A462146BDE8DF
:1033200030401CF0404F08BF704703D5494240422F
:1033300061F100015FEA8C0C38BF70475B4252427A
:1033400063F10003704742D41C0C04BF1B040CF152
:10335000100C13F07F4F04BF1B020CF1080C13F08C
:10336000704F04BF1B010CF1040C13F0404F04BF5D
:103370000CF1020C5FEA83035CBF0CF1010C5B00F3
:10338000CCF1200E22FA0EF4234302FA0CF200FADA
:103390000CF520FA0EF001FA0CF4204321FA0EF19C
:1033A00014461A4600F024F8A4FB0023AA1A71EB75
:1033B00003033CBF1B190138CCF1200E22FA0CF29A
:1033C00003FA0EF4224323FA0CF30021A7E7821A32
:1033D00071EB03033CBF02460B464FF0000141F185
:1033E00000009CE700200021BDE8304000F03DB81F
:1033F0000423B1EB122F09D2090241EA1061000245
:10340000013B08BF7047B1EB122FF5D300184941BB
:1034100034BF9142891A4041494134BF9142891ACF
:103420004041494134BF9142891A4041494134BF2A
:103430009142891A4041494134BF9142891A404121
:10344000494134BF9142891A4041494134BF9142B8
:10345000891A4041494134BF9142891A4041A3F140
:10346000010313F00F0FD2D170477047034613F0DA
:10347000030F0ED101F0FF0141EA012141EA0141B0
:10348000043A24BF43F8041BB2F10402F9D202F15A
:103490000402013A24BF03F8011BFAE770474FF01A
:1034A000FF3070474FF0FF3070474FF0FF307047EC
:1034B0004FF0FF3070474FF0FF3070474FF0FF3054
:1034C000704710467047FFFF415353455254204503
:1034D00052524F522022202573200A0066736C5FDF
:1034E000636C6F636B2E633A313933203A2021626B
:1034F00079706173735874616C4F736300FFFFFFE1
:1035000066736C5F636C6F636B2E683A3135303273
:10351000203A20696E646578203C3D2037554C0088
:103520000000000000801B4000C01B4000001C4049
:1035300000401C4000000C400000004200400042DF
:103540000080004200C0004200801C40FFFF1A01C2
:103550001E001A020C031E0166736C5F6770696FB0
:103560002E633A3630203A20696E7374616E63655B
:10357000203C2041525241595F53495A4528735FBC
:103580006770696F42617365732900FF66736C5FD2
:103590006770696F2E633A313137203A2070696E57
:1035A000203C2033325500FF66736C5F6C70756190
:1035B00072742E633A31303032203A204E554C4CE2
:1035C00020213D206461746100FFFFFF00000000C6
:1035D000004018400080184000C01840000019400A
:1035E000004019400080194000C0194000001A40F6
:1035F00066736C5F616461707465725F6C70756135
:1036000072742E633A373933203A204E554C4C2091
:10361000213D2068616E646C6500000066736C5F1C
:10362000616461707465725F6C70756172742E6331
:103630003A373934203A204E554C4C20213D2064F5
:103640006174610066736C5F616461707465725F60
:103650006C70756172742E633A373935203A206C7C
:10366000656E677468203E20305500FF626F61729E
:10367000642E633A333739203A2021286E6F6E4327
:1036800061636865537461727420252073697A657B
:1036900029000000626F6172642E633A3338302073
:1036A0003A2073697A65203D3D202875696E743330
:1036B000325F74292831203C3C2069290000000039
:1036C000626F6172642E633A333831203A20692088
:1036D0003E3D203500FFFFFF433A5C557365727332
:1036E0005C5044532D557365725C446F63756D6512
:1036F0006E74735C4D43555870726573736F4944B3
:10370000455F31312E382E305F313136355C776F81
:10371000726B73706163655C65766B626D696D7801
:103720007274313036305F696C65645F626C696EEB
:103730006B795C647269766572732F66736C5F6314
:103740006C6F636B2E683A31343136203A206275E3
:1037500073795368696674203C3D2043434D5F4E46
:103760004F5F425553595F5741495400433A5C55A6
:10377000736572735C5044532D557365725C446F6E
:1037800063756D656E74735C4D43555870726573E7
:10379000736F4944455F31312E382E305F313136F9
:1037A000355C776F726B73706163655C65766B62B5
:1037B0006D696D787274313036305F696C65645F45
:1037C000626C696E6B795C647269766572732F6680
:1037D000736C5F636C6F636B2E683A3134363820DC
:1037E0003A20627573795368696674203C3D2043C2
:1037F000434D5F4E4F5F425553595F574149540007
:10380000433A5C55736572735C5044532D55736530
:10381000725C446F63756D656E74735C4D4355588F
:1038200070726573736F4944455F31312E382E30A5
:103830005F313136355C776F726B73706163655CD5
:1038400065766B626D696D787274313036305F69A0
:103850006C65645F626C696E6B795C6472697665D5
:1038600072732F66736C5F636C6F636B2E683A3193
:10387000353032203A20696E646578203C3D20372F
:10388000554C00FF64000000000000000100000033
:103890000000000001000000000000000000000027
:0838A000030000007200770034
:0438A80000A4781FE1
:040000056040031D37
:00000001FF
